:1000000000308A009B2A00000A108A100A11820719
:1000100028340C34013406340A108A100A1182077D
:10002000203420342034203453344934533454346D
:1000300045344D3441340A342034203420342034C3
:1000400041344334543449345634413444344F34C5
:1000500000340A108A100A11820720342034203418
:1000600020344434453454344F344E3441344434D1
:100070004F3452340A342034203420342034203495
:10008000413452344D34413444344F3400340A1036
:100090008A100A1182070C3420342034433455343A
:1000A00045344E3454344134203441345434523481
:1000B000413453343A340A3400340A108A100A1195
:1000C00082072E3400340A108A100A1182070C3479
:1000D00000340A108A100A11820720342034573461
:1000E00054344634203442344F344F344F344F3438
:1000F0004F344D342134203420340A3400340A1073
:100100008A100A118207203420342834683461347C
:10011000733420346D3475346534723474346F3410
:1001200029342034203400343C3084008313000808
:100130000319A7280630F800F701F70B9D28F80BE4
:100140009C287B30F700F70BA328800B9A280034FB
:10015000430EF039F7000F300805770488000000DF
:1001600008140330F700F70BB32808100034881088
:10017000F030831688008312081500000814000070
:100180000808080E0F39C300081000000814C8281A
:10019000C92800000808080E0F39C20008100030F6
:1001A000831688008312430EF700F030F7057708B6
:1001B0004204F8007808C200C21BB828401C88100E
:1001C000401888140000081100000810410EC200F9
:1001D0000F30C2054208C300A82041080F39C200F1
:1001E000C300A820003400308316880083128810D2
:1001F000081108100F30BC0094200130B8003808F6
:10020000033C031C0B290330C300A8200530BC00AD
:100210009420B80AFF280230C300A820B80138088B
:10022000033C031C1C2938080420B900C00139080C
:10023000C100B720B80A0F298A110A12B42A3D0B4F
:10024000222925294030BE002629BE0101303C026A
:10025000BE073E088038BF00C0013F08C100B7207C
:1002600000343B080C3A03193C29063A0319442987
:10027000023A03194A294F29C0010130C100B720B1
:100280000230BC00942055290130BC000230BD0072
:100290001F215529C0011030C100B7205529013058
:1002A000C0003B08C100B72055290034F801F9010E
:1002B000F701FA013D08031D60293C0803197A295A
:1002C0001030BE000310BA0DBB0DF70DFA0D3D083E
:1002D0007A02031D6D293C087702031C76293C082D
:1002E000F702031CFA033D08FA020314F80DF90D96
:1002F000BE0B622900348316881183128815B6114B
:1003000036088316870083128715B80138084720FE
:10031000003803198F29B80ABB00312186292630FD
:10032000A300AC30A200A208031D9929A308031959
:10033000632A0430BC000230BD001F212308BB002B
:100340002208BA000330BD00E830BC00562179080D
:10035000B9007808B8007908BB007808BA00BD0178
:100360000A30BC0056217708303EB9007A08BA003E
:100370000318BA0A3908BB0031212308BB00220840
:10038000BA00BD016430BC0056217908B900780874
:10039000B8007908BB007808BA00BD010A30BC007B
:1003A00056217708303EB9007A08BA000318BA0A15
:1003B0003908BB003121B80138085D200038031925
:1003C000E529B80ABB003121DC292308BB0022083B
:1003D000BA00BD010A30BC0056217908B90078087E
:1003E000B8007908BB007808BA00BD010A30BC002B
:1003F00056217708303EB9007A08BA000318BA0AC5
:100400003908BB0031212308BB002208BA00BD0116
:100410000A30BC0056217708303EB8007A08B9008F
:100420000318B90A3808BB0031210930BC009420F8
:100430002308023C0318252AFF3A031D232A220819
:10044000E83C0318252A6430332A2308003C0318AB
:10045000322AFF3A031D302A22082C3C0318322A84
:100460003230332A1930B8002308BB002208BA0002
:10047000BD013808BC00562177087A04031D5E2AA6
:10048000B6113608831687000830831287063612A5
:100490003608831687001030831287066430BC004C
:1004A0009420361236088316870010308312870690
:1004B0000A30A2020030031C0130A30222080319F3
:1004C000A303A2039329B801380863200038031955
:1004D0006D2AB80ABB003121642AB80138086920A6
:1004E00000380319772AB80ABB0031216E2AB801F7
:1004F00038087F2000380319812AB80ABB0031214F
:10050000782A3230BC009420831688110830831278
:100510008806B611360883168700083083128706CE
:100520003612360883168700103083128706812A18
:100530008A110A12522B840183131F3083058130E4
:1005400083169900A6309800903083129800831685
:100550001F149F141F159F1107309C008312A001C8
:10056000A101FF30B600F32883161F149F141F1536
:100570009F1183121F108316091283129412B61250
:1005800036088316870083123616360883168700CE
:100590008312B61136088316870001308312940047
:1005A0000030831694000108C03907388100831297
:1005B00090010030F800920000308316920007305E
:1005C0009C0005081030F700F70BE42A00001C0817
:1005D00083120D1383169D0183123612360883167B
:1005E000870083120712B61136088316870083121C
:1005F000871183168811831288156430BC009420FB
:100600000C30BB003121B80138080C200038031928
:100610000D2BB80ABB003121042B6430BC009420A0
:10062000B6113608831687000830831287068316B2
:10063000051483120518282B0230B800FA30BC00CC
:100640009420B80B1E2B831605148312051C292B2E
:100650000D2BB611360883168700831287110C30D4
:10066000BB003121B80138082920003803193C2B80
:10067000B80ABB003121332BC830BC00942083164C
:100680008811083083128806831605148312051C0E
:10069000522BC830BC009420831605148312051C0D
:0806A000522B7B293C2B630067
:02400E007A3FF7
:00000001FF
;PIC16F877A
